{
  "contractName": "FundRaising",
  "abi": [
    {
      "inputs": [],
      "payable": false,
      "stateMutability": "nonpayable",
      "type": "constructor"
    },
    {
      "anonymous": false,
      "inputs": [
        {
          "indexed": false,
          "internalType": "address",
          "name": "sender",
          "type": "address"
        },
        {
          "indexed": false,
          "internalType": "uint256",
          "name": "value",
          "type": "uint256"
        }
      ],
      "name": "ContributeEvent",
      "type": "event"
    },
    {
      "anonymous": false,
      "inputs": [
        {
          "indexed": false,
          "internalType": "string",
          "name": "description",
          "type": "string"
        },
        {
          "indexed": false,
          "internalType": "address",
          "name": "recipient",
          "type": "address"
        },
        {
          "indexed": false,
          "internalType": "uint256",
          "name": "value",
          "type": "uint256"
        }
      ],
      "name": "CreateRequestEvent",
      "type": "event"
    },
    {
      "anonymous": false,
      "inputs": [
        {
          "indexed": false,
          "internalType": "address",
          "name": "recipient",
          "type": "address"
        },
        {
          "indexed": false,
          "internalType": "uint256",
          "name": "value",
          "type": "uint256"
        }
      ],
      "name": "MakePaymentEvent",
      "type": "event"
    },
    {
      "constant": true,
      "inputs": [
        {
          "internalType": "address",
          "name": "",
          "type": "address"
        }
      ],
      "name": "Contributors",
      "outputs": [
        {
          "internalType": "uint256",
          "name": "",
          "type": "uint256"
        }
      ],
      "payable": false,
      "stateMutability": "view",
      "type": "function"
    },
    {
      "constant": true,
      "inputs": [
        {
          "internalType": "address",
          "name": "",
          "type": "address"
        }
      ],
      "name": "DirectPays",
      "outputs": [
        {
          "internalType": "uint256",
          "name": "",
          "type": "uint256"
        }
      ],
      "payable": false,
      "stateMutability": "view",
      "type": "function"
    },
    {
      "constant": true,
      "inputs": [],
      "name": "admin",
      "outputs": [
        {
          "internalType": "address payable",
          "name": "",
          "type": "address"
        }
      ],
      "payable": false,
      "stateMutability": "view",
      "type": "function"
    },
    {
      "constant": true,
      "inputs": [],
      "name": "deadline",
      "outputs": [
        {
          "internalType": "uint256",
          "name": "",
          "type": "uint256"
        }
      ],
      "payable": false,
      "stateMutability": "view",
      "type": "function"
    },
    {
      "constant": true,
      "inputs": [],
      "name": "goal",
      "outputs": [
        {
          "internalType": "uint256",
          "name": "",
          "type": "uint256"
        }
      ],
      "payable": false,
      "stateMutability": "view",
      "type": "function"
    },
    {
      "constant": true,
      "inputs": [],
      "name": "minContributions",
      "outputs": [
        {
          "internalType": "uint256",
          "name": "",
          "type": "uint256"
        }
      ],
      "payable": false,
      "stateMutability": "view",
      "type": "function"
    },
    {
      "constant": true,
      "inputs": [],
      "name": "noOfContributors",
      "outputs": [
        {
          "internalType": "uint256",
          "name": "",
          "type": "uint256"
        }
      ],
      "payable": false,
      "stateMutability": "view",
      "type": "function"
    },
    {
      "constant": true,
      "inputs": [],
      "name": "raisedAmonut",
      "outputs": [
        {
          "internalType": "uint256",
          "name": "",
          "type": "uint256"
        }
      ],
      "payable": false,
      "stateMutability": "view",
      "type": "function"
    },
    {
      "constant": true,
      "inputs": [],
      "name": "requestsCount",
      "outputs": [
        {
          "internalType": "uint256",
          "name": "",
          "type": "uint256"
        }
      ],
      "payable": false,
      "stateMutability": "view",
      "type": "function"
    },
    {
      "constant": false,
      "inputs": [
        {
          "internalType": "string",
          "name": "_description",
          "type": "string"
        },
        {
          "internalType": "address payable",
          "name": "_recipient",
          "type": "address"
        },
        {
          "internalType": "uint256",
          "name": "_value",
          "type": "uint256"
        }
      ],
      "name": "createRequest",
      "outputs": [],
      "payable": false,
      "stateMutability": "nonpayable",
      "type": "function"
    },
    {
      "constant": false,
      "inputs": [],
      "name": "contribute",
      "outputs": [],
      "payable": true,
      "stateMutability": "payable",
      "type": "function"
    },
    {
      "constant": true,
      "inputs": [],
      "name": "getBalance",
      "outputs": [
        {
          "internalType": "uint256",
          "name": "",
          "type": "uint256"
        }
      ],
      "payable": false,
      "stateMutability": "view",
      "type": "function"
    }
  ],
  "bytecode": "0x60806040526000600555600060065534801561001a57600080fd5b50336000806101000a81548173ffffffffffffffffffffffffffffffffffffffff021916908373ffffffffffffffffffffffffffffffffffffffff1602179055506103e86002819055506108e2806100736000396000f3fe6080604052600436106100a75760003560e01c8063d7bb99ba11610064578063d7bb99ba146102af578063dfe3832a146102b9578063e54cecfd1461031e578063f2005d9214610349578063f851a44014610374578063fbfa4b7f146103cb576100a7565b806312065fe0146100ac5780631b16bb5c146100d757806329dcb0cf146101c957806340193883146101f45780634e260f6f1461021f578063b55edbfa1461024a575b600080fd5b3480156100b857600080fd5b506100c16103f6565b6040518082815260200191505060405180910390f35b3480156100e357600080fd5b506101c7600480360360608110156100fa57600080fd5b810190808035906020019064010000000081111561011757600080fd5b82018360208201111561012957600080fd5b8035906020019184600183028401116401000000008311171561014b57600080fd5b91908080601f016020809104026020016040519081016040528093929190818152602001838380828437600081840152601f19601f820116905080830192505050505050509192919290803573ffffffffffffffffffffffffffffffffffffffff16906020019092919080359060200190929190505050610415565b005b3480156101d557600080fd5b506101de61064e565b6040518082815260200191505060405180910390f35b34801561020057600080fd5b50610209610654565b6040518082815260200191505060405180910390f35b34801561022b57600080fd5b5061023461065a565b6040518082815260200191505060405180910390f35b34801561025657600080fd5b506102996004803603602081101561026d57600080fd5b81019080803573ffffffffffffffffffffffffffffffffffffffff169060200190929190505050610660565b6040518082815260200191505060405180910390f35b6102b7610678565b005b3480156102c557600080fd5b50610308600480360360208110156102dc57600080fd5b81019080803573ffffffffffffffffffffffffffffffffffffffff1690602001909291905050506107b9565b6040518082815260200191505060405180910390f35b34801561032a57600080fd5b506103336107d1565b6040518082815260200191505060405180910390f35b34801561035557600080fd5b5061035e6107d7565b6040518082815260200191505060405180910390f35b34801561038057600080fd5b506103896107dd565b604051808273ffffffffffffffffffffffffffffffffffffffff1673ffffffffffffffffffffffffffffffffffffffff16815260200191505060405180910390f35b3480156103d757600080fd5b506103e0610802565b6040518082815260200191505060405180910390f35b60003073ffffffffffffffffffffffffffffffffffffffff1631905090565b6000809054906101000a900473ffffffffffffffffffffffffffffffffffffffff1673ffffffffffffffffffffffffffffffffffffffff163373ffffffffffffffffffffffffffffffffffffffff161461046e57600080fd5b6040518060a001604052808481526020018373ffffffffffffffffffffffffffffffffffffffff168152602001828152602001600015158152602001600081525060076000600654815260200190815260200160002060008201518160000190805190602001906104e0929190610808565b5060208201518160010160006101000a81548173ffffffffffffffffffffffffffffffffffffffff021916908373ffffffffffffffffffffffffffffffffffffffff1602179055506040820151816002015560608201518160030160006101000a81548160ff021916908315150217905550608082015181600401559050506006600081548092919060010191905055507f5392bd80651676ccaaedec1afbe841d47e369223df0ba1586110b6426ee87a3a83838360405180806020018473ffffffffffffffffffffffffffffffffffffffff1673ffffffffffffffffffffffffffffffffffffffff168152602001838152602001828103825285818151815260200191508051906020019080838360005b8381101561060d5780820151818401526020810190506105f2565b50505050905090810190601f16801561063a5780820380516001836020036101000a031916815260200191505b5094505050505060405180910390a1505050565b60035481565b60045481565b60015481565b60096020528060005260406000206000915090505481565b600354421061068657600080fd5b600254341161069457600080fd5b6000600860003373ffffffffffffffffffffffffffffffffffffffff1673ffffffffffffffffffffffffffffffffffffffff1681526020019081526020016000205414156106ef576001600081548092919060010191905055505b3460056000828254019250508190555034600860003373ffffffffffffffffffffffffffffffffffffffff1673ffffffffffffffffffffffffffffffffffffffff168152602001908152602001600020600082825401925050819055507f2daf61dec57a2c194e9e87958b1a40a5c236b5e8c6041655d664ddbd16c293203334604051808373ffffffffffffffffffffffffffffffffffffffff1673ffffffffffffffffffffffffffffffffffffffff1681526020018281526020019250505060405180910390a1565b60086020528060005260406000206000915090505481565b60055481565b60025481565b6000809054906101000a900473ffffffffffffffffffffffffffffffffffffffff1681565b60065481565b828054600181600116156101000203166002900490600052602060002090601f016020900481019282601f1061084957805160ff1916838001178555610877565b82800160010185558215610877579182015b8281111561087657825182559160200191906001019061085b565b5b5090506108849190610888565b5090565b6108aa91905b808211156108a657600081600090555060010161088e565b5090565b9056fea265627a7a72315820d9e2f33913a7c6462c726bb361e709021b8f77a753df51648be339614d108c4364736f6c634300050c0032",
  "source": "\npragma solidity >=0.4.26;\n\ncontract FundRaising{\n    \n   \n    struct request{\n        string description;\n        address payable recipient;\n        uint value;\n        bool completed;\n        uint noOfVoters;\n        mapping(address=>bool) voters;\n    }\n    \n    address  payable public admin;\n    uint public noOfContributors;\n    uint public minContributions;\n    uint public deadline;\n    uint public goal;\n    uint public raisedAmonut=0;\n    uint public requestsCount=0;\n\n    mapping(uint=>request) requests;  \n    mapping(address=>uint) public Contributors;\n    mapping(address=>uint)public DirectPays;\n    \n    modifier onlyAdmin(){\n        require(msg.sender==admin);\n        _;\n    }\n    \n\n    event ContributeEvent(address sender,uint value);\n    event CreateRequestEvent(string  description,address recipient,uint value);\n    event MakePaymentEvent(address recipient,uint value);\n\n\n     constructor() public{\n        admin=msg.sender;\n        minContributions=1000;\n        \n    }\n\n    \n\n     function createRequest( string memory _description, address payable _recipient,uint _value)public onlyAdmin{\n        \n            requests[requestsCount]=request(_description,_recipient,_value,false,0);\n            requestsCount++;\n            emit CreateRequestEvent(_description,_recipient,_value);\n    }\n    \n\n\n\n\n\n\n\n\n\n\n\n\n\n\n\n\n\n    function contribute() public payable{\n        \n        require(now<deadline);\n        require(msg.value>minContributions);\n        if(Contributors[msg.sender]==0)\n        {\n            noOfContributors++;\n        }\n        raisedAmonut+=msg.value;\n        Contributors[msg.sender]+=msg.value;\n        \n        emit ContributeEvent(msg.sender,msg.value);\n    }\n    function getBalance() public view returns(uint){\n        return address(this).balance ;\n        \n    }\n\n\n   /* \n    function voteRequest(uint index) public {\n        \n        Request storage thisRequest = requests[index];\n        require(Contributors[msg.sender]>0);\n        require(thisRequest.voters[msg.sender]==false);\n        thisRequest.voters[msg.sender]=true;\n        thisRequest.noOfVoters++;\n        \n    }\n    \n    function makePayment(uint index) public payable onlyAdmin{\n        Request storage thisRequest= requests[index];\n        require(thisRequest.completed== false);\n        require(thisRequest.noOfVoters>noOfContributors/2);\n        thisRequest.recipient.transfer(thisRequest.value);\n        \n        thisRequest.completed=true;\n        emit MakePaymentEvent(thisRequest.recipient,thisRequest.value);\n    }\n    \n    function makeDirectPayment(uint index) public payable\n    {\n        Request storage thisRequest= requests[index];\n        require(thisRequest.completed== false);\n        thisRequest.recipient.transfer(msg.value);\n        DirectPays[msg.sender]=msg.value;\n        emit ContributeEvent(msg.sender,msg.value);\n    }\n    */\n}\n",
  "sourcePath": "/home/neha/Desktop/Ethereum/donations/contracts/FundRaising.sol",
  "compiler": {
    "name": "solc",
    "version": "0.5.12+commit.7709ece9.Emscripten.clang"
  },
  "schemaVersion": "3.0.20",
  "updatedAt": "2020-03-25T18:26:24.277Z",
  "networkType": "ethereum",
  "devdoc": {
    "methods": {}
  },
  "userdoc": {
    "methods": {}
  }
}