{
  "contractName": "FundRaising",
  "abi": [
    {
      "anonymous": false,
      "inputs": [
        {
          "indexed": false,
          "internalType": "uint256",
          "name": "c_id",
          "type": "uint256"
        },
        {
          "indexed": false,
          "internalType": "string",
          "name": "name",
          "type": "string"
        },
        {
          "indexed": false,
          "internalType": "string",
          "name": "des",
          "type": "string"
        },
        {
          "indexed": false,
          "internalType": "address payable",
          "name": "donor",
          "type": "address"
        }
      ],
      "name": "contributorCreated",
      "type": "event"
    },
    {
      "anonymous": false,
      "inputs": [
        {
          "indexed": false,
          "internalType": "bool",
          "name": "status",
          "type": "bool"
        }
      ],
      "name": "fundapproved",
      "type": "event"
    },
    {
      "anonymous": false,
      "inputs": [
        {
          "indexed": false,
          "internalType": "uint256",
          "name": "f_id",
          "type": "uint256"
        },
        {
          "indexed": false,
          "internalType": "string",
          "name": "name",
          "type": "string"
        },
        {
          "indexed": false,
          "internalType": "uint256",
          "name": "amount",
          "type": "uint256"
        },
        {
          "indexed": false,
          "internalType": "string",
          "name": "des",
          "type": "string"
        },
        {
          "indexed": false,
          "internalType": "address payable",
          "name": "reciever",
          "type": "address"
        },
        {
          "indexed": false,
          "internalType": "bool",
          "name": "status",
          "type": "bool"
        }
      ],
      "name": "funraiserCreated",
      "type": "event"
    },
    {
      "constant": true,
      "inputs": [],
      "name": "admin",
      "outputs": [
        {
          "internalType": "address",
          "name": "",
          "type": "address"
        }
      ],
      "payable": false,
      "stateMutability": "view",
      "type": "function"
    },
    {
      "constant": true,
      "inputs": [
        {
          "internalType": "uint256",
          "name": "",
          "type": "uint256"
        }
      ],
      "name": "contributors",
      "outputs": [
        {
          "internalType": "uint256",
          "name": "c_id",
          "type": "uint256"
        },
        {
          "internalType": "string",
          "name": "name",
          "type": "string"
        },
        {
          "internalType": "string",
          "name": "des",
          "type": "string"
        },
        {
          "internalType": "address payable",
          "name": "donor",
          "type": "address"
        }
      ],
      "payable": false,
      "stateMutability": "view",
      "type": "function"
    },
    {
      "constant": true,
      "inputs": [],
      "name": "contributorsCount",
      "outputs": [
        {
          "internalType": "uint256",
          "name": "",
          "type": "uint256"
        }
      ],
      "payable": false,
      "stateMutability": "view",
      "type": "function"
    },
    {
      "constant": true,
      "inputs": [
        {
          "internalType": "uint256",
          "name": "",
          "type": "uint256"
        }
      ],
      "name": "fundraisers",
      "outputs": [
        {
          "internalType": "uint256",
          "name": "f_id",
          "type": "uint256"
        },
        {
          "internalType": "string",
          "name": "name",
          "type": "string"
        },
        {
          "internalType": "uint256",
          "name": "amount",
          "type": "uint256"
        },
        {
          "internalType": "uint256",
          "name": "recieved",
          "type": "uint256"
        },
        {
          "internalType": "string",
          "name": "des",
          "type": "string"
        },
        {
          "internalType": "address payable",
          "name": "reciever",
          "type": "address"
        },
        {
          "internalType": "bool",
          "name": "status",
          "type": "bool"
        }
      ],
      "payable": false,
      "stateMutability": "view",
      "type": "function"
    },
    {
      "constant": true,
      "inputs": [],
      "name": "fundraisersCount",
      "outputs": [
        {
          "internalType": "uint256",
          "name": "",
          "type": "uint256"
        }
      ],
      "payable": false,
      "stateMutability": "view",
      "type": "function"
    },
    {
      "constant": true,
      "inputs": [],
      "name": "ledgerCount",
      "outputs": [
        {
          "internalType": "uint256",
          "name": "",
          "type": "uint256"
        }
      ],
      "payable": false,
      "stateMutability": "view",
      "type": "function"
    },
    {
      "constant": true,
      "inputs": [
        {
          "internalType": "uint256",
          "name": "",
          "type": "uint256"
        }
      ],
      "name": "ledgers",
      "outputs": [
        {
          "internalType": "uint256",
          "name": "l_id",
          "type": "uint256"
        },
        {
          "internalType": "address",
          "name": "sender",
          "type": "address"
        },
        {
          "internalType": "address",
          "name": "reciever",
          "type": "address"
        },
        {
          "internalType": "uint256",
          "name": "amount",
          "type": "uint256"
        }
      ],
      "payable": false,
      "stateMutability": "view",
      "type": "function"
    },
    {
      "constant": false,
      "inputs": [
        {
          "internalType": "string",
          "name": "_name",
          "type": "string"
        },
        {
          "internalType": "uint256",
          "name": "_amount",
          "type": "uint256"
        },
        {
          "internalType": "string",
          "name": "_des",
          "type": "string"
        }
      ],
      "name": "addFund",
      "outputs": [],
      "payable": false,
      "stateMutability": "nonpayable",
      "type": "function"
    },
    {
      "constant": false,
      "inputs": [
        {
          "internalType": "uint256",
          "name": "_f_id",
          "type": "uint256"
        }
      ],
      "name": "approvefund",
      "outputs": [],
      "payable": false,
      "stateMutability": "nonpayable",
      "type": "function"
    },
    {
      "constant": false,
      "inputs": [
        {
          "internalType": "string",
          "name": "_name",
          "type": "string"
        },
        {
          "internalType": "string",
          "name": "_des",
          "type": "string"
        }
      ],
      "name": "addcontributors",
      "outputs": [],
      "payable": false,
      "stateMutability": "nonpayable",
      "type": "function"
    },
    {
      "constant": false,
      "inputs": [
        {
          "internalType": "uint256",
          "name": "_f_id",
          "type": "uint256"
        }
      ],
      "name": "donate",
      "outputs": [],
      "payable": true,
      "stateMutability": "payable",
      "type": "function"
    },
    {
      "constant": false,
      "inputs": [
        {
          "internalType": "uint256",
          "name": "_f_id",
          "type": "uint256"
        },
        {
          "internalType": "address payable",
          "name": "_reciever",
          "type": "address"
        }
      ],
      "name": "spend",
      "outputs": [],
      "payable": true,
      "stateMutability": "payable",
      "type": "function"
    }
  ],
  "bytecode": "0x608060405273dd870fa1b7c4700f2bd7f44238821c26f73921486000806101000a81548173ffffffffffffffffffffffffffffffffffffffff021916908373ffffffffffffffffffffffffffffffffffffffff16021790555060006004556000600555600060065534801561007357600080fd5b50611aed806100836000396000f3fe6080604052600436106100a75760003560e01c8063a4d1d68911610064578063a4d1d6891461043e578063e97891901461059d578063f14faf6f14610659578063f38f72fb14610687578063f4311d6c146107fa578063f851a44014610835576100a7565b80631e9f59db146100ac5780633cb5d100146100fa5780636f6f78eb146102545780637569b3d7146103bd5780639bb00ae3146103e85780639d3b435514610413575b600080fd5b6100f8600480360360408110156100c257600080fd5b8101908080359060200190929190803573ffffffffffffffffffffffffffffffffffffffff16906020019092919050505061088c565b005b34801561010657600080fd5b506101336004803603602081101561011d57600080fd5b8101908080359060200190929190505050610c6b565b6040518085815260200180602001806020018473ffffffffffffffffffffffffffffffffffffffff1673ffffffffffffffffffffffffffffffffffffffff168152602001838103835286818151815260200191508051906020019080838360005b838110156101af578082015181840152602081019050610194565b50505050905090810190601f1680156101dc5780820380516001836020036101000a031916815260200191505b50838103825285818151815260200191508051906020019080838360005b838110156102155780820151818401526020810190506101fa565b50505050905090810190601f1680156102425780820380516001836020036101000a031916815260200191505b50965050505050505060405180910390f35b34801561026057600080fd5b506103bb6004803603606081101561027757600080fd5b810190808035906020019064010000000081111561029457600080fd5b8201836020820111156102a657600080fd5b803590602001918460018302840111640100000000831117156102c857600080fd5b91908080601f016020809104026020016040519081016040528093929190818152602001838380828437600081840152601f19601f820116905080830192505050505050509192919290803590602001909291908035906020019064010000000081111561033557600080fd5b82018360208201111561034757600080fd5b8035906020019184600183028401116401000000008311171561036957600080fd5b91908080601f016020809104026020016040519081016040528093929190818152602001838380828437600081840152601f19601f820116905080830192505050505050509192919290505050610deb565b005b3480156103c957600080fd5b506103d2611084565b6040518082815260200191505060405180910390f35b3480156103f457600080fd5b506103fd61108a565b6040518082815260200191505060405180910390f35b34801561041f57600080fd5b50610428611090565b6040518082815260200191505060405180910390f35b34801561044a57600080fd5b5061059b6004803603604081101561046157600080fd5b810190808035906020019064010000000081111561047e57600080fd5b82018360208201111561049057600080fd5b803590602001918460018302840111640100000000831117156104b257600080fd5b91908080601f016020809104026020016040519081016040528093929190818152602001838380828437600081840152601f19601f8201169050808301925050505050505091929192908035906020019064010000000081111561051557600080fd5b82018360208201111561052757600080fd5b8035906020019184600183028401116401000000008311171561054957600080fd5b91908080601f016020809104026020016040519081016040528093929190818152602001838380828437600081840152601f19601f820116905080830192505050505050509192919290505050611096565b005b3480156105a957600080fd5b506105d6600480360360208110156105c057600080fd5b81019080803590602001909291905050506112cf565b604051808581526020018473ffffffffffffffffffffffffffffffffffffffff1673ffffffffffffffffffffffffffffffffffffffff1681526020018373ffffffffffffffffffffffffffffffffffffffff1673ffffffffffffffffffffffffffffffffffffffff16815260200182815260200194505050505060405180910390f35b6106856004803603602081101561066f57600080fd5b810190808035906020019092919050505061133f565b005b34801561069357600080fd5b506106c0600480360360208110156106aa57600080fd5b810190808035906020019092919050505061176b565b6040518088815260200180602001878152602001868152602001806020018573ffffffffffffffffffffffffffffffffffffffff1673ffffffffffffffffffffffffffffffffffffffff16815260200184151515158152602001838103835289818151815260200191508051906020019080838360005b83811015610752578082015181840152602081019050610737565b50505050905090810190601f16801561077f5780820380516001836020036101000a031916815260200191505b50838103825286818151815260200191508051906020019080838360005b838110156107b857808201518184015260208101905061079d565b50505050905090810190601f1680156107e55780820380516001836020036101000a031916815260200191505b50995050505050505050505060405180910390f35b34801561080657600080fd5b506108336004803603602081101561081d57600080fd5b810190808035906020019092919050505061190a565b005b34801561084157600080fd5b5061084a611999565b604051808273ffffffffffffffffffffffffffffffffffffffff1673ffffffffffffffffffffffffffffffffffffffff16815260200191505060405180910390f35b6108946119be565b600160008481526020019081526020016000206040518060e001604052908160008201548152602001600182018054600181600116156101000203166002900480601f0160208091040260200160405190810160405280929190818152602001828054600181600116156101000203166002900480156109555780601f1061092a57610100808354040283529160200191610955565b820191906000526020600020905b81548152906001019060200180831161093857829003601f168201915b505050505081526020016002820154815260200160038201548152602001600482018054600181600116156101000203166002900480601f016020809104026020016040519081016040528092919081815260200182805460018160011615610100020316600290048015610a0b5780601f106109e057610100808354040283529160200191610a0b565b820191906000526020600020905b8154815290600101906020018083116109ee57829003601f168201915b505050505081526020016005820160009054906101000a900473ffffffffffffffffffffffffffffffffffffffff1673ffffffffffffffffffffffffffffffffffffffff1673ffffffffffffffffffffffffffffffffffffffff1681526020016005820160149054906101000a900460ff16151515158152505090506000816000015110158015610aa157506004548160000151105b8015610ab55750600115158160c001511515145b610abe57600080fd5b3373ffffffffffffffffffffffffffffffffffffffff168273ffffffffffffffffffffffffffffffffffffffff161415610af757600080fd5b8173ffffffffffffffffffffffffffffffffffffffff166108fc349081150290604051600060405180830381858888f19350505050158015610b3d573d6000803e3d6000fd5b50604051806080016040528060065481526020013373ffffffffffffffffffffffffffffffffffffffff1681526020018373ffffffffffffffffffffffffffffffffffffffff168152602001670de0b6b3a76400003481610b9a57fe5b0481525060036000600660008154809291906001019190505581526020019081526020016000206000820151816000015560208201518160010160006101000a81548173ffffffffffffffffffffffffffffffffffffffff021916908373ffffffffffffffffffffffffffffffffffffffff16021790555060408201518160020160006101000a81548173ffffffffffffffffffffffffffffffffffffffff021916908373ffffffffffffffffffffffffffffffffffffffff16021790555060608201518160030155905050505050565b6002602052806000526040600020600091509050806000015490806001018054600181600116156101000203166002900480601f016020809104026020016040519081016040528092919081815260200182805460018160011615610100020316600290048015610d1d5780601f10610cf257610100808354040283529160200191610d1d565b820191906000526020600020905b815481529060010190602001808311610d0057829003601f168201915b505050505090806002018054600181600116156101000203166002900480601f016020809104026020016040519081016040528092919081815260200182805460018160011615610100020316600290048015610dbb5780601f10610d9057610100808354040283529160200191610dbb565b820191906000526020600020905b815481529060010190602001808311610d9e57829003601f168201915b5050505050908060030160009054906101000a900473ffffffffffffffffffffffffffffffffffffffff16905084565b6040518060e001604052806004548152602001848152602001838152602001600081526020018281526020013373ffffffffffffffffffffffffffffffffffffffff16815260200160001515815250600160006004548152602001908152602001600020600082015181600001556020820151816001019080519060200190610e75929190611a13565b5060408201518160020155606082015181600301556080820151816004019080519060200190610ea6929190611a13565b5060a08201518160050160006101000a81548173ffffffffffffffffffffffffffffffffffffffff021916908373ffffffffffffffffffffffffffffffffffffffff16021790555060c08201518160050160146101000a81548160ff0219169083151502179055509050506004600081548092919060010191905055507f6b608da8015baa9d1e67270786c1d926b234b18225f9e2ac47f1053ef7bd9cb16004548484843360006040518087815260200180602001868152602001806020018573ffffffffffffffffffffffffffffffffffffffff1673ffffffffffffffffffffffffffffffffffffffff16815260200184151515158152602001838103835288818151815260200191508051906020019080838360005b83811015610fd9578082015181840152602081019050610fbe565b50505050905090810190601f1680156110065780820380516001836020036101000a031916815260200191505b50838103825286818151815260200191508051906020019080838360005b8381101561103f578082015181840152602081019050611024565b50505050905090810190601f16801561106c5780820380516001836020036101000a031916815260200191505b509850505050505050505060405180910390a1505050565b60055481565b60065481565b60045481565b604051806080016040528060055481526020018381526020018281526020013373ffffffffffffffffffffffffffffffffffffffff1681525060026000600554815260200190815260200160002060008201518160000155602082015181600101908051906020019061110a929190611a13565b506040820151816002019080519060200190611127929190611a13565b5060608201518160030160006101000a81548173ffffffffffffffffffffffffffffffffffffffff021916908373ffffffffffffffffffffffffffffffffffffffff1602179055509050506005600081548092919060010191905055507fff6c13d0d3d0b728d52895805cfd8f47638af0af82e68ef23dab6812311e2f526005548383336040518085815260200180602001806020018473ffffffffffffffffffffffffffffffffffffffff1673ffffffffffffffffffffffffffffffffffffffff168152602001838103835286818151815260200191508051906020019080838360005b8381101561122757808201518184015260208101905061120c565b50505050905090810190601f1680156112545780820380516001836020036101000a031916815260200191505b50838103825285818151815260200191508051906020019080838360005b8381101561128d578082015181840152602081019050611272565b50505050905090810190601f1680156112ba5780820380516001836020036101000a031916815260200191505b50965050505050505060405180910390a15050565b60036020528060005260406000206000915090508060000154908060010160009054906101000a900473ffffffffffffffffffffffffffffffffffffffff16908060020160009054906101000a900473ffffffffffffffffffffffffffffffffffffffff16908060030154905084565b6113476119be565b600160008381526020019081526020016000206040518060e001604052908160008201548152602001600182018054600181600116156101000203166002900480601f0160208091040260200160405190810160405280929190818152602001828054600181600116156101000203166002900480156114085780601f106113dd57610100808354040283529160200191611408565b820191906000526020600020905b8154815290600101906020018083116113eb57829003601f168201915b505050505081526020016002820154815260200160038201548152602001600482018054600181600116156101000203166002900480601f0160208091040260200160405190810160405280929190818152602001828054600181600116156101000203166002900480156114be5780601f10611493576101008083540402835291602001916114be565b820191906000526020600020905b8154815290600101906020018083116114a157829003601f168201915b505050505081526020016005820160009054906101000a900473ffffffffffffffffffffffffffffffffffffffff1673ffffffffffffffffffffffffffffffffffffffff1673ffffffffffffffffffffffffffffffffffffffff1681526020016005820160149054906101000a900460ff1615151515815250509050600081600001511015801561155457506004548160000151105b80156115685750600115158160c001511515145b61157157600080fd5b60008160a0015190503373ffffffffffffffffffffffffffffffffffffffff168173ffffffffffffffffffffffffffffffffffffffff1614156115b357600080fd5b8073ffffffffffffffffffffffffffffffffffffffff166108fc349081150290604051600060405180830381858888f193505050501580156115f9573d6000803e3d6000fd5b50670de0b6b3a7640000348161160b57fe5b046001600085815260200190815260200160002060030154016001600085815260200190815260200160002060030181905550604051806080016040528060065481526020013373ffffffffffffffffffffffffffffffffffffffff1681526020018273ffffffffffffffffffffffffffffffffffffffff168152602001670de0b6b3a7640000348161169a57fe5b0481525060036000600660008154809291906001019190505581526020019081526020016000206000820151816000015560208201518160010160006101000a81548173ffffffffffffffffffffffffffffffffffffffff021916908373ffffffffffffffffffffffffffffffffffffffff16021790555060408201518160020160006101000a81548173ffffffffffffffffffffffffffffffffffffffff021916908373ffffffffffffffffffffffffffffffffffffffff16021790555060608201518160030155905050505050565b6001602052806000526040600020600091509050806000015490806001018054600181600116156101000203166002900480601f01602080910402602001604051908101604052809291908181526020018280546001816001161561010002031660029004801561181d5780601f106117f25761010080835404028352916020019161181d565b820191906000526020600020905b81548152906001019060200180831161180057829003601f168201915b505050505090806002015490806003015490806004018054600181600116156101000203166002900480601f0160208091040260200160405190810160405280929190818152602001828054600181600116156101000203166002900480156118c75780601f1061189c576101008083540402835291602001916118c7565b820191906000526020600020905b8154815290600101906020018083116118aa57829003601f168201915b5050505050908060050160009054906101000a900473ffffffffffffffffffffffffffffffffffffffff16908060050160149054906101000a900460ff16905087565b600180600083815260200190815260200160002060050160146101000a81548160ff0219169083151502179055507fd6c6ccfd3719fb7c272a01b7d732305a4636939bb25bbdc6e200daebc89dc01b6001600083815260200190815260200160002060050160149054906101000a900460ff16604051808215151515815260200191505060405180910390a150565b6000809054906101000a900473ffffffffffffffffffffffffffffffffffffffff1681565b6040518060e001604052806000815260200160608152602001600081526020016000815260200160608152602001600073ffffffffffffffffffffffffffffffffffffffff1681526020016000151581525090565b828054600181600116156101000203166002900490600052602060002090601f016020900481019282601f10611a5457805160ff1916838001178555611a82565b82800160010185558215611a82579182015b82811115611a81578251825591602001919060010190611a66565b5b509050611a8f9190611a93565b5090565b611ab591905b80821115611ab1576000816000905550600101611a99565b5090565b9056fea265627a7a7231582055d57416937c38c018e495824b2cad9ae1c5cf6fee40790d37e329f5cfbc706864736f6c634300050c0032",
  "source": "pragma solidity ^0.5.1;\ncontract FundRaising{\n    \n    struct fundraiser{\n        uint f_id;\n        string name;\n        uint amount ;\n        uint recieved;\n        string des;\n        address payable reciever;\n        bool status;\n    }\n    \n    struct contributor{\n        uint c_id;\n        string name;\n        string des;\n        address payable donor;\n        \n    }\n    \n    //to store where the ether is being spent i.e tracking\n    struct ledger{\n         uint l_id;\n         address sender;\n         address reciever;\n         uint amount;\n         \n    }\n    \n    event funraiserCreated(\n        uint f_id,\n        string name,\n        uint amount,\n        string des,\n        address payable reciever,\n        bool status\n    );\n    \n     event contributorCreated(\n        uint c_id,\n        string name,\n        string des,\n        address payable donor\n        \n    );\n    \n    event fundapproved(\n      bool status\n    );\n    \n     modifier onlyAdmin(){\n        require(msg.sender==admin);\n        _;\n    }\n    \n    address public admin=0xdD870fA1b7C4700F2BD7f44238821C26f7392148;\n    \n  \n    mapping (uint=>fundraiser) public fundraisers;\n    mapping (uint=>contributor) public contributors;\n    mapping (uint=>ledger)public ledgers;\n\n    uint public fundraisersCount=0;\n    uint public contributorsCount=0;\n    uint public ledgerCount=0;\n    \n    function addFund(string  memory _name, uint _amount, string memory _des )public{\n        \n        fundraisers[fundraisersCount]=fundraiser(fundraisersCount, _name, _amount,0,_des,msg.sender,false);\n        fundraisersCount++;\n        emit funraiserCreated(fundraisersCount, _name, _amount,_des,msg.sender,false);\n    }\n    \n    \n    function approvefund(uint _f_id)public {\n        fundraisers[_f_id].status=true;\n        emit fundapproved(fundraisers[_f_id].status);\n    }\n    \n    \n    function addcontributors( string  memory _name,  string memory _des )public{\n        \n        contributors[contributorsCount]=contributor(contributorsCount, _name,_des,msg.sender);\n        contributorsCount++;\n        emit contributorCreated(contributorsCount, _name,_des,msg.sender);\n        \n    }\n    \n    \n    function donate(uint _f_id) public payable{\n        \n         //fetch the details of fundraiser\n         fundraiser memory _fundraiser = fundraisers[_f_id];\n        \n         //valid id\n         require (_fundraiser.f_id >=0 && _fundraiser.f_id< fundraisersCount && _fundraiser.status==true);\n         \n         address payable _reciever= _fundraiser.reciever;\n         \n         // cheking reciever is not the message sender\n         require (_reciever!=msg.sender);\n        \n         //transferring ether to fundraiser\n         address(_reciever).transfer(msg.value);\n         \n         //updating the amount recieved\n         fundraisers[_f_id].recieved  = fundraisers[_f_id].recieved  + msg.value/10**18 ;\n         \n         //updating the ledger\n         ledgers[ledgerCount++]=ledger(ledgerCount,msg.sender,_reciever,msg.value/10**18);\n  \n    }\n    \n    //when the fundraiser is spending ether\n    function spend(uint _f_id, address payable _reciever) public payable{\n         //fetch the details of fundraiser\n         fundraiser memory _fundraiser = fundraisers[_f_id];\n        \n         //valid id\n         require (_fundraiser.f_id >=0 && _fundraiser.f_id< fundraisersCount &&  _fundraiser.status==true);\n         \n        // cheking reciever is not the message sender\n         require (_reciever!=msg.sender);\n         \n         //transferring ether to fundraiser\n         address(_reciever).transfer(msg.value);\n         \n        //updating the ledger\n         ledgers[ledgerCount++]=ledger(ledgerCount,msg.sender,_reciever,msg.value/10**18);\n    \n    }\n    \n}\n",
  "sourcePath": "/home/neha/Desktop/Ethereum/donations/contracts/FundRaising.sol",
  "compiler": {
    "name": "solc",
    "version": "0.5.12+commit.7709ece9.Emscripten.clang"
  },
  "schemaVersion": "3.0.20",
  "updatedAt": "2020-04-21T07:22:17.594Z",
  "networkType": "ethereum",
  "devdoc": {
    "methods": {}
  },
  "userdoc": {
    "methods": {}
  }
}